{
  "contractName": "Covid19_blockchain",
  "abi": [
    {
      "constant": true,
      "inputs": [],
      "name": "nextid",
      "outputs": [
        {
          "name": "",
          "type": "uint256"
        }
      ],
      "payable": false,
      "stateMutability": "view",
      "type": "function",
      "signature": "0x5c29d40d"
    },
    {
      "constant": true,
      "inputs": [
        {
          "name": "",
          "type": "uint256"
        }
      ],
      "name": "Indian_states",
      "outputs": [
        {
          "name": "id",
          "type": "uint256"
        },
        {
          "name": "state_name",
          "type": "string"
        },
        {
          "name": "Covid19_activecases",
          "type": "uint256"
        },
        {
          "name": "Covid19_effectedcases",
          "type": "uint256"
        },
        {
          "name": "Covid19_deaths",
          "type": "uint256"
        },
        {
          "name": "Covid19_recovered",
          "type": "uint256"
        }
      ],
      "payable": false,
      "stateMutability": "view",
      "type": "function",
      "signature": "0x8184ae10"
    },
    {
      "constant": false,
      "inputs": [
        {
          "name": "state_name",
          "type": "string"
        },
        {
          "name": "activecases",
          "type": "uint256"
        },
        {
          "name": "effectedcases",
          "type": "uint256"
        },
        {
          "name": "Deaths",
          "type": "uint256"
        },
        {
          "name": "Recovered",
          "type": "uint256"
        }
      ],
      "name": "New_state",
      "outputs": [],
      "payable": false,
      "stateMutability": "nonpayable",
      "type": "function",
      "signature": "0x2d50259d"
    },
    {
      "constant": true,
      "inputs": [
        {
          "name": "state_name",
          "type": "string"
        }
      ],
      "name": "Search_statename",
      "outputs": [
        {
          "name": "",
          "type": "string"
        },
        {
          "name": "",
          "type": "uint256"
        },
        {
          "name": "",
          "type": "string"
        },
        {
          "name": "",
          "type": "string"
        },
        {
          "name": "",
          "type": "string"
        },
        {
          "name": "",
          "type": "uint256"
        },
        {
          "name": "",
          "type": "string"
        },
        {
          "name": "",
          "type": "uint256"
        },
        {
          "name": "",
          "type": "string"
        },
        {
          "name": "",
          "type": "uint256"
        },
        {
          "name": "",
          "type": "string"
        },
        {
          "name": "",
          "type": "uint256"
        }
      ],
      "payable": false,
      "stateMutability": "view",
      "type": "function",
      "signature": "0xdc3131f0"
    },
    {
      "constant": false,
      "inputs": [
        {
          "name": "state_name",
          "type": "string"
        },
        {
          "name": "activecases",
          "type": "uint256"
        },
        {
          "name": "effectedcases",
          "type": "uint256"
        },
        {
          "name": "Deaths",
          "type": "uint256"
        },
        {
          "name": "Recovered",
          "type": "uint256"
        }
      ],
      "name": "Update_state",
      "outputs": [],
      "payable": false,
      "stateMutability": "nonpayable",
      "type": "function",
      "signature": "0xe41ac986"
    },
    {
      "constant": false,
      "inputs": [
        {
          "name": "state_name",
          "type": "string"
        }
      ],
      "name": "Delete_state",
      "outputs": [],
      "payable": false,
      "stateMutability": "nonpayable",
      "type": "function",
      "signature": "0x1734972c"
    }
  ],
  "bytecode": "0x608060405234801561001057600080fd5b50610de2806100206000396000f3fe6080604052600436106100775763ffffffff7c01000000000000000000000000000000000000000000000000000000006000350416631734972c811461007c5780632d50259d1461009e5780635c29d40d146100be5780638184ae10146100e9578063dc3131f01461011b578063e41ac98614610153575b600080fd5b34801561008857600080fd5b5061009c610097366004610a27565b610173565b005b3480156100aa57600080fd5b5061009c6100b9366004610a64565b6101d1565b3480156100ca57600080fd5b506100d36102be565b6040516100e09190610ca0565b60405180910390f35b3480156100f557600080fd5b50610109610104366004610af0565b6102c4565b6040516100e096959493929190610cae565b34801561012757600080fd5b5061013b610136366004610a27565b6103a6565b6040516100e09c9b9a99989796959493929190610ba8565b34801561015f57600080fd5b5061009c61016e366004610a64565b610695565b600061017e82610773565b905060008181548110151561018f57fe5b600091825260208220600690910201818155906101af60018301826108de565b5060006002820181905560038201819055600482018190556005909101555050565b6040805160c0810182526001805482526020808301898152938301889052606083018790526080830186905260a0830185905260008054928301808255908052835160069093027f290decd9548b62a8d60345a988386fc84ba6bc95484008f6362f93160ef3e5638101938455945180518a9688968b968b969194909361027f937f290decd9548b62a8d60345a988386fc84ba6bc95484008f6362f93160ef3e56401929190910190610925565b5060408201516002820155606082015160038201556080820151600482015560a090910151600590910155505060018054810190555050505050505050565b60015481565b60008054829081106102d257fe5b9060005260206000209060060201600091509050806000015490806001018054600181600116156101000203166002900480601f0160208091040260200160405190810160405280929190818152602001828054600181600116156101000203166002900480156103845780601f1061035957610100808354040283529160200191610384565b820191906000526020600020905b81548152906001019060200180831161036757829003601f168201915b5050505050908060020154908060030154908060040154908060050154905086565b6060600060608060606000606060006060600060606000806103c78e610773565b90506000818154811015156103d857fe5b9060005260206000209060060201600001546000828154811015156103f957fe5b906000526020600020906006020160010160008381548110151561041957fe5b90600052602060002090600602016002015460008481548110151561043a57fe5b90600052602060002090600602016003015460008581548110151561045b57fe5b90600052602060002090600602016004015460008681548110151561047c57fe5b60009182526020918290206005600690920201015460408051808201825260028082527f49640000000000000000000000000000000000000000000000000000000000008286015282518084018452600a81527f5374617465206e616d65000000000000000000000000000000000000000000008187015289548451601f6000196101006001851615020190921693909304908101879004870283018701909452838252919998919791969195919491939290918791908301828280156105845780601f1061055957610100808354040283529160200191610584565b820191906000526020600020905b81548152906001019060200180831161056757829003601f168201915b505050505094506040805190810160405280600c81526020017f4163746976652063617365730000000000000000000000000000000000000000815250939291906040805190810160405280600e81526020017f45666665637465642063617365730000000000000000000000000000000000008152509291906040805190810160405280600681526020017f446561746873000000000000000000000000000000000000000000000000000081525091906040805190810160405280600f81526020017f5265636f76657265642063617365730000000000000000000000000000000000815250909c509c509c509c509c509c509c509c509c509c509c509c505091939597999b5091939597999b565b60006106a086610773565b9050856000828154811015156106b257fe5b906000526020600020906006020160010190805190602001906106d6929190610925565b50846000828154811015156106e757fe5b9060005260206000209060060201600201819055508360008281548110151561070c57fe5b9060005260206000209060060201600301819055508260008281548110151561073157fe5b9060005260206000209060060201600401819055508160008281548110151561075657fe5b906000526020600020906006020160050181905550505050505050565b6000805b60005481101561089d57826040516020018082805190602001908083835b602083106107b45780518252601f199092019160209182019101610795565b6001836020036101000a038019825116818451168082178552505050505050905001915050604051602081830303815290604052805190602001206000828154811015156107fe57fe5b9060005260206000209060060201600101604051602001808280546001816001161561010002031660029004801561086d5780601f1061084b57610100808354040283529182019161086d565b820191906000526020600020905b815481529060010190602001808311610859575b50509150506040516020818303038152906040528051906020012014156108955790506108d9565b600101610777565b506040517f08c379a00000000000000000000000000000000000000000000000000000000081526004016108d090610c8a565b60405180910390fd5b919050565b50805460018160011615610100020316600290046000825580601f106109045750610922565b601f01602090049060005260206000209081019061092291906109a3565b50565b828054600181600116156101000203166002900490600052602060002090601f016020900481019282601f1061096657805160ff1916838001178555610993565b82800160010185558215610993579182015b82811115610993578251825591602001919060010190610978565b5061099f9291506109a3565b5090565b6109bd91905b8082111561099f57600081556001016109a9565b90565b6000601f820183136109d157600080fd5b81356109e46109df82610d36565b610d0f565b91508082526020830160208301858383011115610a0057600080fd5b610a0b838284610d62565b50505092915050565b6000610a2082356109bd565b9392505050565b600060208284031215610a3957600080fd5b813567ffffffffffffffff811115610a5057600080fd5b610a5c848285016109c0565b949350505050565b600080600080600060a08688031215610a7c57600080fd5b853567ffffffffffffffff811115610a9357600080fd5b610a9f888289016109c0565b9550506020610ab088828901610a14565b9450506040610ac188828901610a14565b9350506060610ad288828901610a14565b9250506080610ae388828901610a14565b9150509295509295909350565b600060208284031215610b0257600080fd5b6000610a5c8484610a14565b6000610b1982610d5e565b808452610b2d816020860160208601610d6e565b610b3681610d9e565b9093016020019392505050565b602881527f5468697320737461746520646f6573206e6f7420657869737420696e20626c6f60208201527f636b636861696e21000000000000000000000000000000000000000000000000604082015260600190565b610ba2816109bd565b82525050565b6101808082528101610bba818f610b0e565b9050610bc9602083018e610b99565b8181036040830152610bdb818d610b0e565b90508181036060830152610bef818c610b0e565b90508181036080830152610c03818b610b0e565b9050610c1260a083018a610b99565b81810360c0830152610c248189610b0e565b9050610c3360e0830188610b99565b818103610100830152610c468187610b0e565b9050610c56610120830186610b99565b818103610140830152610c698185610b0e565b9050610c79610160830184610b99565b9d9c50505050505050505050505050565b60208082528101610c9a81610b43565b92915050565b60208101610c9a8284610b99565b60c08101610cbc8289610b99565b8181036020830152610cce8188610b0e565b9050610cdd6040830187610b99565b610cea6060830186610b99565b610cf76080830185610b99565b610d0460a0830184610b99565b979650505050505050565b60405181810167ffffffffffffffff81118282101715610d2e57600080fd5b604052919050565b600067ffffffffffffffff821115610d4d57600080fd5b506020601f91909101601f19160190565b5190565b82818337506000910152565b60005b83811015610d89578181015183820152602001610d71565b83811115610d98576000848401525b50505050565b601f01601f19169056fea265627a7a72305820716d9a4d53f30523a835fa49a038b10064c015d437adb02f8fa2e29ebd5ca8156c6578706572696d656e74616cf50037",
  "source": "pragma solidity ^0.5.0;\r\npragma experimental ABIEncoderV2;\r\ncontract Covid19_blockchain{\r\n    struct Indian{\r\n        uint id;\r\n        string state_name;\r\n        uint Covid19_activecases;\r\n        uint Covid19_effectedcases;\r\n        uint Covid19_deaths;\r\n        uint Covid19_recovered;\r\n        \r\n        \r\n    }\r\n    Indian[] public Indian_states;\r\n    uint public nextid;\r\n    \r\n    function New_state(string memory state_name,uint activecases, uint  effectedcases,uint Deaths,uint   Recovered) public{\r\n            uint Covid19_activecases=activecases;\r\n            uint Covid19_recovered=Recovered;\r\n            uint Covid19_effectedcases=effectedcases;\r\n            uint Covid19_deaths=Deaths;\r\n            Indian_states.push(Indian(nextid,state_name,Covid19_activecases,Covid19_effectedcases,Covid19_deaths,Covid19_recovered));\r\n            nextid++;\r\n        }\r\n        function Search_statename(string memory state_name)view public returns(string memory,uint,string memory,string memory,string memory,uint,string memory,uint,string memory,uint,string memory,uint){\r\n            \r\n            uint i=find_id(state_name);\r\n                    return(\"Id\",Indian_states[i].id,\"State name\",Indian_states[i].state_name,\"Active cases\",Indian_states[i].Covid19_activecases,\"Effected cases\",Indian_states[i].Covid19_effectedcases,\"Deaths\",Indian_states[i].Covid19_deaths,\"Recovered cases\",Indian_states[i].Covid19_recovered);\r\n                \r\n                \r\n            \r\n        }\r\n        function Update_state(string memory state_name,uint activecases, uint  effectedcases,uint Deaths,uint   Recovered)public{\r\n             uint i=find_id(state_name);\r\n                  Indian_states[i].state_name=state_name;\r\n                  Indian_states[i].Covid19_activecases=activecases;\r\n                  Indian_states[i].Covid19_effectedcases=effectedcases;\r\n                  Indian_states[i].Covid19_deaths=Deaths;\r\n                  Indian_states[i].Covid19_recovered=Recovered;  \r\n                \r\n                \r\n            \r\n            \r\n        }\r\n        function Delete_state(string memory state_name)public{\r\n            uint i=find_id(state_name);\r\n                  delete Indian_states[i]; \r\n                \r\n            \r\n        }\r\n        function find_id(string memory state_name)view internal returns(uint){\r\n            for(uint i=0;i<Indian_states.length;i++){\r\n                if(keccak256(abi.encodePacked(Indian_states[i].state_name))== keccak256(abi.encodePacked(state_name)))\r\n                {\r\n                    return i;\r\n                }\r\n            }\r\n            revert('This state does not exist in blockchain!');\r\n        }\r\n        \r\n        \r\n        \r\n    \r\n}",
  "sourcePath": "/home/pranay/Desktop/Repos/daap public zip/contracts/Covid19_blockchain.sol",
  "compiler": {
    "name": "solc",
    "version": "0.5.0+commit.1d4f565a.Emscripten.clang"
  },
  "schemaVersion": "3.0.1",
  "updatedAt": "2020-05-22T04:35:39.987Z",
  "devdoc": {
    "methods": {}
  },
  "userdoc": {
    "methods": {}
  }
}